:020000040000FA
:060000000A128A11FC2F18
:10000C0000300A128A1592250A128A113430F50032
:10001C00F130F400F40B1028F50B102815280330E0
:10002C000A128A1578250A128A110D30F500FB3058
:10003C00F400F40B1F28F50B1F28242803300A1298
:10004C008A1578250A128A111D30F5009130F400BA
:10005C00F40B2E28F50B2E2803300A128A1578255E
:10006C000A128A1102300A128A1578250A128A118C
:10007C0002300A128A1578250A128A1108300A12DF
:10008C008A1578250A128A1100300A128A157825E9
:10009C000A128A110C300A128A1578250A128A1152
:1000AC0000300A128A1578250A128A1106300A12B3
:1000BC008A1578250A128A110800F80078080319A5
:1000CC00682869287D28F31F6C286D287D28700905
:1000DC00FA007109FB007209FC007309FD00FA0AB1
:1000EC000319FB0A0319FC0A0319FD0A8528730876
:1000FC00FD007208FC007108FB007008FA00730820
:10010C00720471047004031D8C288D28962800300D
:10011C00F3000030F2000030F1000030F0001C2938
:10012C009630F4007408F900A8280130F400740823
:10013C00F90701300310FD0CFC0CFB0CFA0CFF3E14
:10014C00031DA028FE307D05031DAD28AE289B287D
:10015C00CA280130F4007408F9070130FA0700309E
:10016C0003180130FB07003003180130FC07003086
:10017C0003180130FD0701300310FD0CFC0CFB0CC7
:10018C00FA0CFF3E031DC228FF307D05031DCF284E
:10019C00D028AF28DC280130F9020130F40003101C
:1001AC00FA0DFB0DFC0DFD0DF40BD528FC1BDF2807
:1001BC00E028E628023079020318E528E628D12841
:1001CC007918E928EA28F228FF30FA05FF30FB05F8
:1001DC007F30FC05FF30FD050310F90C7908F400A5
:1001EC00F501F601F70118300310F40DF50DF60DBD
:1001FC00F70DFF3E031DFA287408FA047508FB047A
:10020C007608FC047708FD04780803190E290F29D9
:10021C001429F31F122913291429FD177D08F30043
:10022C007C08F2007B08F1007A08F00008008312C9
:10023C00031327088039A8002808B1002708A80054
:10024C002807A9002908B800A61F2D292E292F2917
:10025C00381438080319332934294429380A031D62
:10026C003829392941290030A7000030A600003078
:10027C00A5000030A400A617A7014C290030A70048
:10028C000030A6000030A5000030A40023088039FF
:10029C00A8002808B1062308A8002807A9002908E7
:1002AC00B900A21F5A295B295C2939143908031992
:1002BC00602961297129390A031D652966296E296E
:1002CC000030A3000030A2000030A1000030A000DC
:1002DC00A217A30179290030A3000030A20000303E
:1002EC00A1000030A0002308220421042004031DD7
:1002FC00802981299A290030A7000030A6000030FF
:10030C00A5000030A4008030A6047F30A70431087B
:10031C00A8002808A7042708A3002608A20025087F
:10032C00A1002408A000F92A3808031D9E299F2942
:10033C00A8290030A3000030A2000030A10000303A
:10034C00A000F92A3808A800A9012908AB0039082F
:10035C002802AA00031CAB032A087F3EB2002B081C
:10036C000318013E003EB3002708B0002608AF007A
:10037C002508AE002408AD000030A7000030A60010
:10038C000030A5000030A4000030B7000030B600EB
:10039C000030B5000030B400B9011E2A3908031929
:1003AC00D829D929F9290130A8000310AD0DAE0DBB
:1003BC00AF0DB00DA80BDB290130A8000310A40D64
:1003CC00A50DA60DA70DA80BE429B71FEE29EF2943
:1003DC00F02924140130A8000310B40DB50DB60D8E
:1003EC00B70DA80BF22923083002031D072A220897
:1003FC002F02031D072A21082E02031D072A20089D
:10040C002D02031C0A2A0B2A1A2A37172008AD02C0
:10041C002108031C210FAE022208031C220FAF027D
:10042C002308031C230FB0020130A8002808B907C9
:10043C001A303902031C232A242AD42930082F0409
:10044C002E042D0403192B2A2C2A4B2A34144B2A44
:10045C000130A8000310A40DA50DA60DA70DA80B27
:10046C00302AB71F3A2A3B2A3C2A24140130A80010
:10047C000310B40DB50DB60DB70DA80B3E2AFF3009
:10048C00B2070318B30AFF30B307A61F4E2A4F2A30
:10049C002E2AB901B71F532A542A702AFF3034056B
:1004AC00A800FF303505A900FF303605AA007F30C3
:1004BC003705AB002B082A04290428040319672AE2
:1004CC00682A6B2AB901B90A702A241C6E2A6F2A71
:1004DC00702A682A39080319742A752AA62A013049
:1004EC00A407003003180130A507003003180130B1
:1004FC00A607003003180130A707271C862A872A75
:10050C00A62A2408A8002508A9002608AA0027085E
:10051C00AB000130AC002B0DAB0CAA0CA90CA80C39
:10052C00AC0B912A2B08A7002A08A6002908A500C5
:10053C002808A4000130B2070318B30A0030B3072F
:10054C003308803AFF0080307F02031DAF2AFF3052
:10055C003202031CB22AB32AC12AFF3083120313BE
:10056C00B2000030B3000030A7000030A60000300D
:10057C00A5000030A400831203133308803AFF0057
:10058C0080307F02031DCC2A013032020318CF2A9F
:10059C00D02ADD2A83120313B201B3010030A70065
:1005AC000030A6000030A5000030A400B101831279
:1005BC0003133208A8002808B800381CE62AE72ADA
:1005CC00E92AA617ED2A7F30A8002808A6053808C6
:1005DC00A8000310280CA9002908A7003108A800BE
:1005EC002808A704912908001030831603138600ED
:1005FC00880186100A128A1106200A128A11F40147
:10060C00F40A01300A128A1572260A128A11013074
:10061C000A128A15B4250A128A11F401F40A02305E
:10062C000A128A1572260A128A1125300A128A15A4
:10063C00B4250A128A11153083120313C7004B30EC
:10064C00C600BD30C500C50B292BC60B292BC70B0B
:10065C00292B302B0A128A156B250A128A11F401E8
:10066C00F40A01300A128A1572260A128A111A30FB
:10067C000A128A15B4250A128A11F401F40A0230FE
:10068C000A128A1572260A128A112E300A128A153B
:10069C00B4250A128A11153083120313C7004B308C
:1006AC00C600BD30C500C50B592BC60B592BC70B4B
:1006BC00592B602B0A128A156B250A128A111030DD
:1006CC0083120313900000300A128A1539260A127D
:1006DC008A1101300A128A1539260A128A118312DC
:1006EC0003138F018E010614053083120313C5000A
:1006FC00C50B7E2B812B831203130610061E872B32
:10070C00882B842B1014061A8C2B8D2B892B1010F4
:10071C000F08C9000E08C8004808F0004908F1008D
:10072C000030F11BFF30F200F30001300A128A1185
:10073C0063200A128A11730883120313A70072082C
:10074C00A6007108A5007008A4004230A3006B300D
:10075C00A2004730A100AE30A0000A128A111D2160
:10076C000A128A11831203132308BD002208BC004D
:10077C002108BB002008BA000A128A1584270A1225
:10078C008A11831203133B08C9003A08C8004808B1
:10079C00013EC80049080318013E003EC900490843
:1007AC00803AFF0080307F02031DDE2B0D304802A3
:1007BC00031CE12BE22B1A2D831203134908803AF8
:1007CC00FF0080307F02031DED2B10304802031810
:1007DC00F02BF12B1A2D0A128A156B250A128A118D
:1007EC00F401F40A01300A128A1572260A128A11CF
:1007FC000E300A128A15B4250A128A110E30831291
:10080C000313C5004508F40001300A128A1572263C
:10081C000A128A110A30F0000030F100831203131F
:10082C004908F3004808F2000A128A15C4260A1275
:10083C008A117008303E0A128A1500260A128A1193
:10084C000A30F0000030F100831203134908F30062
:10085C004808F2000A128A151D270A128A1171081B
:10086C0083120313C9007008C8000D30C500450879
:10087C00F40001300A128A1572260A128A110A3003
:10088C00F0000030F100831203134908F30048080C
:10089C00F2000A128A15C4260A128A117008303E18
:1008AC000A128A1500260A128A110A30F00000304A
:1008BC00F100831203134908F3004808F2000A12EE
:1008CC008A151D270A128A11710883120313C90095
:1008DC007008C8000C30C5004508F40001300A123D
:1008EC008A1572260A128A110A30F0000030F100C3
:1008FC00831203134908F3004808F2000A128A1500
:10090C00C4260A128A117008303E0A128A15002673
:10091C000A128A110F3083120313C5004508F40024
:10092C0001300A128A1572260A128A1136300A12FE
:10093C008A15B4250A128A11831203138614F00146
:10094C0000300A128A15D9250A128A115A308312DC
:10095C000313C5004508F00001300A128A15D92589
:10096C000A128A1101300A128A1567250A128A1195
:10097C00083083120313C700B630C600FF30C50021
:10098C00C50BC62CC60BC62CC70BC62CF0010130F0
:10099C000A128A15D9250A128A11153083120313EB
:1009AC00C7004B30C600BD30C500C50BDB2CC60BD9
:1009BC00DB2CC70BDB2CE22C01300A128A156725C5
:1009CC000A128A115A3083120313C5004508F0002D
:1009DC0001300A128A15D9250A128A11083083129D
:1009EC000313C7009D30C6000530C500C50BFC2C99
:1009FC00C60BFC2CC70BFC2CF00101300A128A151B
:100A0C00D9250A128A118312031386100B30831214
:100A1C000313C7002630C6005D30C500C50B142D6E
:100A2C00C60B142DC70B142D831203134908803ADF
:100A3C00FF0080307F02031D252D28304802031C47
:100A4C00282D292D622E831203134908803AFF00AA
:100A5C0080307F02031D342D2B3048020318372DB4
:100A6C00382D622E0A128A156B250A128A11F4018E
:100A7C00F40A01300A128A1572260A128A110E30F3
:100A8C000A128A15B4250A128A110E308312031326
:100A9C00C5004508F40001300A128A1572260A12A4
:100AAC008A110A30F0000030F10083120313490858
:100ABC00F3004808F2000A128A15C4260A128A1199
:100ACC007008303E0A128A1500260A128A110A3062
:100ADC00F0000030F100831203134908F3004808BA
:100AEC00F2000A128A151D270A128A117108831244
:100AFC000313C9007008C8000D30C5004508F40088
:100B0C0001300A128A1572260A128A110A30F00074
:100B1C000030F100831203134908F3004808F20077
:100B2C000A128A15C4260A128A117008303E0A125B
:100B3C008A1500260A128A110A30F0000030F100E2
:100B4C00831203134908F3004808F2000A128A15AD
:100B5C001D270A128A11710883120313C900700829
:100B6C00C8000C30C5004508F40001300A128A1583
:100B7C0072260A128A110A30F0000030F10083123A
:100B8C0003134908F3004808F2000A128A15C42618
:100B9C000A128A117008303E0A128A1500260A12AF
:100BAC008A110F3083120313C5004508F40001307D
:100BBC000A128A1572260A128A1136300A128A15FE
:100BCC00B4250A128A11831203138614F001013022
:100BDC000A128A15D9250A128A115A308312031364
:100BEC00C5004508F00000300A128A15D9250A12F2
:100BFC008A1100300A128A1567250A128A110A30E6
:100C0C0083120313C7009730C6008230C500C50B92
:100C1C000D2EC60B0D2EC70B0D2E0000F001003053
:100C2C000A128A15D9250A128A110B308312031362
:100C3C00C7002630C6005D30C500C50B232EC60B81
:100C4C00232EC70B232E5A3083120313C5004508DD
:100C5C00F00000300A128A15D9250A128A110030C8
:100C6C000A128A1567250A128A110A308312031395
:100C7C00C7008A30C6008530C500C50B432EC60B95
:100C8C00432EC70B432E4A2EF00100300A128A1550
:100C9C00D9250A128A118312031386100B30831282
:100CAC000313C7002630C6005D30C500C50B5C2E93
:100CBC00C60B5C2EC70B5C2E831203134908803ABB
:100CCC00FF0080307F02031D6D2E49304802031C4B
:100CDC00702E712E352F0A128A156B250A128A1165
:100CEC00F401F40A01300A128A1572260A128A11CA
:100CFC000E300A128A15B4250A128A110E3083128C
:100D0C000313C5004508F40001300A128A15722637
:100D1C000A128A110A30F0000030F100831203131A
:100D2C004908F3004808F2000A128A15C4260A1270
:100D3C008A117008303E0A128A1500260A128A118E
:100D4C000A30F0000030F100831203134908F3005D
:100D5C004808F2000A128A151D270A128A11710816
:100D6C0083120313C9007008C8000D30C500450874
:100D7C00F40001300A128A1572260A128A110A30FE
:100D8C00F0000030F100831203134908F300480807
:100D9C00F2000A128A15C4260A128A117008303E13
:100DAC000A128A1500260A128A110A30F000003045
:100DBC00F100831203134908F3004808F2000A12E9
:100DCC008A151D270A128A11710883120313C90090
:100DDC007008C8000C30C5004508F40001300A1238
:100DEC008A1572260A128A110A30F0000030F100BE
:100DFC00831203134908F3004808F2000A128A15FB
:100E0C00C4260A128A117008303E0A128A1500266E
:100E1C000A128A110F3083120313C5004508F4001F
:100E2C0001300A128A1572260A128A1136300A12F9
:100E3C008A15B4250A128A118312031386141F30E3
:100E4C0083120313C7007130C6001D30C500C50BDB
:100E5C002D2FC60B2D2FC70B2D2F342FE92F0A1238
:100E6C008A156B250A128A11831203138610F4015A
:100E7C00F40A01300A128A1572260A128A110E30EF
:100E8C000A128A15B4250A128A110E308312031322
:100E9C00C5004508F40001300A128A1572260A12A0
:100EAC008A110A30F0000030F10083120313490854
:100EBC00F3004808F2000A128A15C4260A128A1195
:100ECC007008303E0A128A1500260A128A110A305E
:100EDC00F0000030F100831203134908F3004808B6
:100EEC00F2000A128A151D270A128A117108831240
:100EFC000313C9007008C8000D30C5004508F40084
:100F0C0001300A128A1572260A128A110A30F00070
:100F1C000030F100831203134908F3004808F20073
:100F2C000A128A15C4260A128A117008303E0A1257
:100F3C008A1500260A128A110A30F0000030F100DE
:100F4C00831203134908F3004808F2000A128A15A9
:100F5C001D270A128A11710883120313C900700825
:100F6C00C8000C30C5004508F40001300A128A157F
:100F7C0072260A128A110A30F0000030F100831236
:100F8C0003134908F3004808F2000A128A15C42614
:100F9C000A128A117008303E0A128A1500260A12AB
:100FAC008A110F3083120313C5004508F400013079
:100FBC000A128A1572260A128A1136300A128A15FA
:100FCC00B4250A128A11033083120313C7000830A8
:100FDC00C6007630C500C50BF12FC60BF12FC70B21
:100FEC00F12F0000752B0A128A11002883010A12B6
:100FFC008A11FA2A08308A000408840A820700340D
:10100C0044346534763465346C346F347034653400
:10101C0064342034423479340034443469347334C5
:10102C00743461346E346334653420343D3420348C
:10103C00003420342034203459346F346734653410
:10104C0072346F346F340034203420342034203424
:10105C005234413445344434003420342034203468
:10106C002034463459345034003463346D340034F5
:101ACE00831203131215080000300A128A157825A6
:101ADE000A128A1501300A128A1578250A128A15F9
:101AEE000800F30083120313081173080A128A15F3
:101AFE0092250A128A158312031388150B30F200F1
:101B0E006230F100F10B892DF20B892D000083124A
:101B1E00031388110800F000701C962D972D9B2D35
:101B2E008312031308169E2D831203130812F01C42
:101B3E00A12DA22DA42D8816A52D8812701DA82DBD
:101B4E00A92DAB2D0817AC2D0813F01DAF2DB02D00
:101B5E00B22D8817B32D88130800F700F501F60192
:101B6E00CB2D7508770784000A128A1500200A12F9
:101B7E008A150A128A1500260A128A150130F507EF
:101B8E000318F60A0030F6077508770784000A1264
:101B9E008A1500200A128A15003A031DD72DD82D5A
:101BAE00B82D0800F30065307002031CDF2DE02D08
:101BBE00EF2D6430F1007108F000EF2D70088312E4
:101BCE0003139500FF2D7008831203139B00FF2D46
:101BDE007308F100F2017208003A0319F72DFF2D78
:101BEE007108003A0319E52D013A0319EA2DFF2D6C
:101BFE000800F40074080F39F1007108F20074083F
:101C0E00F039F1007108F3008312031308157308FD
:101C1E00F10004300310F10CFF3E031D112E71086C
:101C2E000A128A1592250A128A1583120313881531
:101C3E001A30F100F10B212E0000831203138811CC
:101C4E0072080A128A1592250A128A158312031334
:101C5E0088151A30F100F10B322E00008312031397
:101C6E0088110800F200612E0F30831203139700C3
:101C7E0064308316031392003230831203139500DF
:101C8E00FB30F0007008831603138705712E0F309A
:101C9E00831203139D0064308316031392003230B7
:101CAE00831203139B00FD30F0007008831603139C
:101CBE008705712E7208F000F1017108003A0319C0
:101CCE00692E712E7008003A03193B2E013A031942
:101CDE004E2E712E0800F7007703031D772E782EF7
:101CEE009B2E74087F3EF5007508FA007A08F50001
:101CFE0004300310F50CFF3E031D802E7508F60010
:101D0E007608F8007A080F39F5007508F90078089A
:101D1E000A128A1578250A128A1579080A128A1566
:101D2E0078250A128A15C32E02307706031DA02EBF
:101D3E00A12EC32E7408BF3EF5007508FA007A086E
:101D4E00F50004300310F50CFF3E031DA92E750897
:101D5E00F6007608F8007A080F39F5007508F900D4
:101D6E0078080A128A1578250A128A1579080A1235
:101D7E008A1578250A128A150800F601F31FC82E57
:101D8E00C92ED02EF209F309F20A0319F30AF6014D
:101D9E00F60AF11FD32ED42ED92EF009F109F00A2E
:101DAE000319F10A700871040319DE2EDF2E0E2FAF
:101DBE00F501F50AED2E01300310F00DF10DFF3E89
:101DCE00031DE32E0130F4007408F507F11FF02E09
:101DDE00F12EE22E71087302031DF72E70087202A7
:101DEE00031CFA2EFB2E012F7008F2027108031C41
:101DFE00F303F30201300310F10CF00CFF3E031D50
:101E0E00022F0130F502031D0D2F0E2FF12E760835
:101E1E000319122F132F182FF209F309F20A0319BF
:101E2E00F30A7308F1007208F0000800F601F11FC2
:101E3E00212F222F292FF009F109F00A0319F10A97
:101E4E00F601F60AF31F2C2F2D2F362FF209F30968
:101E5E00F20A0319F30A0130F4007408F606F701CA
:101E6E00F8017008710403193D2F3E2F752FF501EF
:101E7E00F50A4C2F01300310F00DF10DFF3E031D3E
:101E8E00422F0130F4007408F507F11F4F2F502F29
:101E9E00412F01300310F70DF80DFF3E031D512F9A
:101EAE0071087302031D5D2F70087202031C602FF0
:101EBE00612F682F7008F2027108031CF303F302FE
:101ECE00771401300310F10CF00CFF3E031D692F47
:101EDE000130F502031D742F752F502F760803194C
:101EEE00792F7A2F7F2FF709F809F70A0319F80AC5
:101EFE007808F1007708F00008000310831203132E
:101F0E003C0D3D0DBE003E08C4004408031D902F3D
:101F1E00912F9A2F0030BD000030BC000030BB0066
:101F2E000030BA00FF2F3A08BE003B08BF003C0845
:101F3E00C0003D08C1001F300310C10CC00CBF0C07
:101F4E00BE0CFF3E031DA32F3E08C2004208C30075
:101F5E00BC17FF30BA05FF30BB05FF30BC050030A3
:101F6E00BD059630C402C41FBD2FBE2FD82F440806
:101F7E00803A973E0318C42FC52FC62F912F0130DC
:101F8E000310BD0CBC0CBB0CBA0CFF3E031DC72FBF
:101F9E000130BE003E08C407031DD62FD72FC62F13
:101FAE00EF2F20304402031CDD2FDE2FEA2F912F5E
:101FBE000130BE000310BA0DBB0DBC0DBD0DBE0B26
:101FCE00E12F0130C4024408031DEE2FEF2FDF2F47
:101FDE0043080319F32FF42FFF2FBA09BB09BC09CD
:101FEE00BD09BA0A0319BB0A0319BC0A0319BD0AB3
:021FFE000800D9
:02400E003A3F37
:00000001FF
